:100000001DC024C023C022C021C020C01FC01EC0EC
:100010001DC01CC01BC01AC019C018C017C005A83D
:100020004CCDB2D44EB93836A9020C50B99186885D
:10003000083CA6AAAA2ABE000000803F11241FBEC9
:10004000CFE5D2E0DEBFCDBF17D009C3D9CF00972F
:1000500041F0E7ECF0E03197F1F700C000000197C4
:10006000F6CF0895882319F088B3826003C098B34F
:1000700082E0892788BB0895B99A11E0C0E0D0E0FA
:10008000BE0180E090E04BD120E030E048EC52E44B
:10009000ADD02BED3FE049E450E4F3D15DD220E058
:1000A00030E048EC52E4EDD109D1062F81E0DADFEF
:1000B000802F992787FD9095CADF80E0D3DF602FDE
:1000C000772767FD7095872F972F2BD19B01AC0168
:1000D00060E070E088EC92E420D0F5D0CB01B7DF8F
:1000E000C10FD11D17FDDA95BE0180E090E017D158
:1000F0006B017C0120E030E048EC52E473D08111C8
:1001000002C01FEFBDCF20E030E0A901C701B6015A
:1001100069D08111B5CF11E0B3CF5058BB27AA27C2
:100120000ED075C166D130F06BD120F031F49F3F15
:1001300011F41EF45BC10EF4E095E7FB51C1E92F09
:1001400077D180F3BA17620773078407950718F011
:1001500071F49EF58FC10EF4E0950B2EBA2FA02DF1
:100160000B01B90190010C01CA01A0011124FF2764
:10017000591B99F0593F50F4503E68F11A16F0405F
:10018000A22F232F342F4427585FF3CF469537955E
:100190002795A795F0405395C9F77EF41F16BA0B23
:1001A000620B730B840BBAF09150A1F0FF0FBB1FD1
:1001B000661F771F881FC2F70EC0BA0F621F731F1A
:1001C000841F48F4879577956795B795F7959E3F77
:1001D00008F0B3CF9395880F08F09927EE0F979505
:1001E00087950895D9D008F481E008950CD00FC107
:1001F00007D140F0FED030F021F45F3F19F0F0C09D
:10020000511139C1F3C014D198F39923C9F355237F
:10021000B1F3951B550BBB27AA27621773078407F9
:1002200038F09F5F5F4F220F331F441FAA1FA9F3AF
:1002300033D00E2E3AF0E0E830D091505040E695A1
:10024000001CCAF729D0FE2F27D0660F771F881F02
:10025000BB1F261737074807AB07B0E809F0BB0BF1
:10026000802DBF01FF2793585F4F2AF09E3F510515
:1002700068F0B6C000C15F3FECF3983EDCF38695B2
:1002800077956795B795F7959F5FC9F7880F911D8B
:100290009695879597F90895E1E0660F771F881F77
:1002A000BB1F621773078407BA0720F0621B730B2A
:1002B000840BBA0BEE1F88F7E095089504D068947C
:1002C000B111D9C00895BCD088F09F5790F0B92FD4
:1002D0009927B751A0F0D1F0660F771F881F991F9B
:1002E0001AF0BA95C9F712C0B13081F0C3D0B1E0AD
:1002F0000895C0C0672F782F8827B85F39F0B93FBD
:10030000CCF3869577956795B395D9F73EF490959C
:100310008095709561957F4F8F4F9F4F0895E8941A
:1003200009C097FB3EF490958095709561957F4F3D
:100330008F4F9F4F9923A9F0F92F96E9BB279395EB
:10034000F695879577956795B795F111F8CFFAF4FB
:10035000BB0F11F460FF1BC06F5F7F4F8F4F9F4F2C
:1003600016C0882311F096E911C0772321F09EE88A
:10037000872F762F05C0662371F096E8862F70E0F0
:1003800060E02AF09A95660F771F881FDAF7880FCA
:100390009695879597F90895990F0008550FAA0B20
:1003A000E0E8FEEF16161706E807F907C0F0121688
:1003B0001306E407F50798F0621B730B840B950B8B
:1003C00039F40A2661F0232B242B252B21F40895E0
:1003D0000A2609F4A140A6958FEF811D811D08957D
:1003E00097F99F6780E870E060E008959FEF80ECE8
:1003F000089500240A94161617061806090608958B
:1004000000240A9412161306140605060895092EF0
:100410000394000C11F4882352F0BB0F40F4BF2B5F
:1004200011F460FF04C06F5F7F4F8F4F9F4F08959F
:1004300057FD9058440F551F59F05F3F71F0479595
:10044000880F97FB991F61F09F3F79F0879508957A
:10045000121613061406551FF2CF4695F1DF08C099
:10046000161617061806991FF1CF869571056105B6
:1004700008940895E894BB2766277727CB0197F95E
:1004800008950AD0C4CFB5DF28F0BADF18F095235D
:1004900009F0A6CFABCFEFCFCBDFA8F39923D9F3E9
:1004A0005523C9F3950F50E0551FAA27EE27FF27C4
:1004B000BB2700240894679520F4E20FF31FB41FB4
:1004C0000A1E220F331F441FAA1F6695A9F77795AE
:1004D00030F4F30FB41F0A1E121E08F46395330F95
:1004E000441FAA1F221F769599F7879520F4B40F11
:1004F0000A1E121E631F440FAA1F221F331F869558
:10050000A9F7862F712D602D11249F5750408AF036
:10051000E1F088234AF0EE0FFF1FBB1F661F771F15
:10052000881F91505040A9F79E3F510570F058CF59
:10053000A2CF5F3FECF3983EDCF386957795679505
:10054000B795F795E7959F5FC1F7FE2B880F911D33
:100550009695879597F908959F9305D00F9007FC7E
:10056000EE5F28C043CF6CDFE8F3E894E0E0BB2700
:100570009F57F0F02AED3FE049EC06C0EE0FBB0FAD
:10058000661F771F881F28F0B23A62077307840737
:1005900028F0B25A620B730B840BE3959A9572F7AD
:1005A000803830F49A95BB0F661F771F881FD2F7EB
:1005B000904813C0EF93E0FF06C0A2EA2AED3FE0A7
:1005C00049EC5FEBBCDD23DF0F90039401FC9058F6
:1005D000EEE1F0E00EC09F3F31F0915020F487959E
:1005E00077956795B795880F911D9695879597F99B
:1005F00008959F938F937F936F93FF93EF939B0146
:10060000AC013FDFEF91FF9105D02F913F914F91CA
:100610005F9137CFDF93CF931F930F93FF92EF92AA
:10062000DF927B018C01689405C0DA2EEF0134DF84
:10063000FE01E894A5912591359145915591AEF330
:10064000EF017DDDFE019701A801DA9479F7DF90D3
:10065000EF90FF900F911F91CF91DF910895F89443
:02066000FFCFCA
:00000001FF
